:100000000C9434000C9451000C9451000C94510049
:100010000C9451000C9451000C9451000C9451001C
:100020000C9451000C9451000C9451000C9451000C
:100030000C9451000C9451000C9451000C945100FC
:100040000C9451000C9451000C9437010C94510005
:100050000C9451000C9451000C9451000C945100DC
:100060000C9451000C94510011241FBECFEFD8E026
:10007000DEBFCDBF11E0A0E0B1E0E6E8F3E002C0F2
:1000800005900D92A030B107D9F721E0A0E0B1E0D2
:1000900001C01D92A330B207E1F70E945B010C94EE
:1000A000C1010C940000BC0185B1826085B980E477
:1000B0009FE10E948A01709301016093000182E038
:1000C0008093800081E18093810080910001909174
:1000D0000101909387008093860020910001309168
:1000E0000101ABEABAEA0E949E019695879590932A
:1000F0008900809388000895CF92DF92EF92FF925B
:10010000CF93DF93EC016A017B0183E290E00E94D0
:100110005300E0E8F0E080818068808387EB96E31D
:100120000197F1F700C0000080818F77808385B14F
:100130008D7F85B9E7E5FBE13197F1F700C000005D
:1001400080E090E8A0E0B0E037C0E0E8F0E0208197
:1001500020682083E7EDF7E03197F1F700C0000059
:10016000AE0160E070E0482359236A237B23452BCE
:10017000462B472B79F0E0E8F0E020812F772083B1
:1001800025B12D7F25B9EFE6F3E13197F1F700C0F6
:1001900000000EC0E0E8F0E020812F77208325B139
:1001A0002D7F25B9EFE3F6E03197F1F700C00000AD
:1001B000B695A795979587950097A105B10529F65E
:1001C00080E090E0A0E0B0E836C0E0E8F0E0208118
:1001D00020682083E7EDF7E03197F1F700C00000D9
:1001E000AC01BD014C215D216E217F21452B462BA9
:1001F000472B79F0E0E8F0E020812F77208325B1CC
:100200002D7F25B9EFE6F3E13197F1F700C000004B
:100210000EC0E0E8F0E020812F77208325B12D7F0C
:1002200025B9EFE3F6E03197F1F700C00000B6958D
:10023000A795979587950097A105B10531F6E0E858
:10024000F0E080818068808387ED97E00197F1F787
:1002500000C0000080818F77808385B18D7F85B954
:10026000DF91CF91FF90EF90DF90CF9008951F9294
:100270000F920FB60F9211242F938F939F9380911B
:10028000C60085B1806285B92FEF83EC99E02150DB
:1002900080409040E1F700C0000085B18F7D85B9B6
:1002A00081E0809302019F918F912F910F900FBE5B
:1002B0000F901F9018958FEF8AB987B984B98AB1CA
:1002C0008E7F8AB90E947D017894809102018823F3
:1002D000E1F31092020149E550E560E079E084E045
:1002E00090E40E947C002FEF81EE94E0215080404A
:1002F0009040E1F700C00000E8CF87E690E09093DF
:10030000C5008093C40086E08093C20088E9809392
:10031000C100089597FB072E16F4009407D077FDCF
:1003200009D00E94AD0107FC05D03EF4909581955F
:100330009F4F0895709561957F4F0895A29FB001DA
:10034000B39FC001A39F700D811D1124911DB29F09
:10035000700D811D1124911D0895AA1BBB1B51E135
:1003600007C0AA1FBB1FA617B70710F0A61BB70B25
:10037000881F991F5A95A9F780959095BC01CD01CA
:060380000895F894FFCF80
:00000001FF
