:100000000C9434000C9451000C9451000C94510049
:100010000C9451000C9451000C9451000C9451001C
:100020000C9451000C9451000C9451000C9451000C
:100030000C9451000C9451000C9451000C945100FC
:100040000C9451000C9451000C9437010C94510005
:100050000C9451000C9451000C9451000C945100DC
:100060000C9451000C94510011241FBECFEFD8E026
:10007000DEBFCDBF11E0A0E0B1E0E8EAF3E002C0EE
:1000800005900D92A634B107D9F721E0A6E4B1E0BE
:1000900001C01D92A934B207E1F70E9483010C94BC
:1000A000D2010C940000BC0185B1826085B980E466
:1000B0009FE10E949B01709347016093460182E09B
:1000C0008093800081E1809381008091460190912E
:1000D00047019093870080938600209146013091DC
:1000E0004701ABEABAEA0E94AF01969587959093D3
:1000F0008900809388000895CF92DF92EF92FF925B
:10010000CF93DF93EC016A017B0183E290E00E94D0
:100110005300E0E8F0E080818068808387EB96E31D
:100120000197F1F700C0000080818F77808385B14F
:100130008D7F85B9E7E5FBE13197F1F700C000005D
:1001400080E090E8A0E0B0E037C0E0E8F0E0208197
:1001500020682083E7EDF7E03197F1F700C0000059
:10016000AE0160E070E0482359236A237B23452BCE
:10017000462B472B79F0E0E8F0E020812F772083B1
:1001800025B12D7F25B9EFE6F3E13197F1F700C0F6
:1001900000000EC0E0E8F0E020812F77208325B139
:1001A0002D7F25B9EFE3F6E03197F1F700C00000AD
:1001B000B695A795979587950097A105B10529F65E
:1001C00080E090E0A0E0B0E836C0E0E8F0E0208118
:1001D00020682083E7EDF7E03197F1F700C00000D9
:1001E000AC01BD014C215D216E217F21452B462BA9
:1001F000472B79F0E0E8F0E020812F77208325B1CC
:100200002D7F25B9EFE6F3E13197F1F700C000004B
:100210000EC0E0E8F0E020812F77208325B12D7F0C
:1002200025B9EFE3F6E03197F1F700C00000B6958D
:10023000A795979587950097A105B10531F6E0E858
:10024000F0E080818068808387ED97E00197F1F787
:1002500000C0000080818F77808385B18D7F85B954
:10026000DF91CF91FF90EF90DF90CF9008951F9294
:100270000F920FB60F9211242F933F934F935F93DA
:100280006F937F938F939F93AF93BF93EF93FF935E
:100290004091C6004093480180E022C0282F30E002
:1002A000F901EE0FFF1FEE0FFF1FE20FF31FE050EB
:1002B000FF4F9081491313C0F901EE0FFF1FEE0F9E
:1002C000FF1F2E0F3F1FF901E050FF4F4181528168
:1002D0006381748184E090E40E947C0003C08F5F9E
:1002E0008E30E0F2FF91EF91BF91AF919F918F918E
:1002F0007F916F915F914F913F912F910F900FBE22
:100300000F901F9018958FEF8AB987B984B98AB179
:100310008E7F8AB90E948E017894FFCF87E690E0A5
:100320009093C5008093C40086E08093C20088E962
:100330008093C100089597FB072E16F4009407D010
:1003400077FD09D00E94BE0107FC05D03EF49095D0
:1003500081959F4F0895709561957F4F0895A29F55
:10036000B001B39FC001A39F700D811D1124911D89
:10037000B29F700D811D1124911D0895AA1BBB1BF6
:1003800051E107C0AA1FBB1FA617B70710F0A61B95
:10039000B70B881F991F5A95A9F780959095BC01B6
:0803A000CD010895F894FFCF90
:1003A8003A595000093F09000009ABC9C00009AC1F
:1003B800494000093B696000092A090000093C1905
:1003C800100009B1F9F00009E0E36A8009E1E3EA05
:1003D8000009D1C9408009D2EF668009C149C080AF
:0603E80009C2931A80090E
:00000001FF
